{
  "contractName": "Crowdfunding",
  "abi": [
    {
      "anonymous": false,
      "inputs": [
        {
          "indexed": true,
          "internalType": "uint256",
          "name": "id",
          "type": "uint256"
        },
        {
          "indexed": true,
          "internalType": "address",
          "name": "owner",
          "type": "address"
        },
        {
          "indexed": false,
          "internalType": "uint256",
          "name": "goal",
          "type": "uint256"
        },
        {
          "indexed": false,
          "internalType": "uint256",
          "name": "deadline",
          "type": "uint256"
        }
      ],
      "name": "CampaignCreated",
      "type": "event"
    },
    {
      "anonymous": false,
      "inputs": [
        {
          "indexed": true,
          "internalType": "uint256",
          "name": "campaignId",
          "type": "uint256"
        },
        {
          "indexed": true,
          "internalType": "address",
          "name": "owner",
          "type": "address"
        },
        {
          "indexed": false,
          "internalType": "uint256",
          "name": "amount",
          "type": "uint256"
        }
      ],
      "name": "FundsClaimed",
      "type": "event"
    },
    {
      "anonymous": false,
      "inputs": [
        {
          "indexed": true,
          "internalType": "uint256",
          "name": "campaignId",
          "type": "uint256"
        },
        {
          "indexed": true,
          "internalType": "address",
          "name": "backer",
          "type": "address"
        },
        {
          "indexed": false,
          "internalType": "uint256",
          "name": "amount",
          "type": "uint256"
        }
      ],
      "name": "Pledged",
      "type": "event"
    },
    {
      "inputs": [],
      "name": "campaignCount",
      "outputs": [
        {
          "internalType": "uint256",
          "name": "",
          "type": "uint256"
        }
      ],
      "stateMutability": "view",
      "type": "function",
      "constant": true
    },
    {
      "inputs": [
        {
          "internalType": "uint256",
          "name": "",
          "type": "uint256"
        }
      ],
      "name": "campaigns",
      "outputs": [
        {
          "internalType": "string",
          "name": "title",
          "type": "string"
        },
        {
          "internalType": "string",
          "name": "description",
          "type": "string"
        },
        {
          "internalType": "uint256",
          "name": "goal",
          "type": "uint256"
        },
        {
          "internalType": "uint256",
          "name": "deadline",
          "type": "uint256"
        },
        {
          "internalType": "address",
          "name": "owner",
          "type": "address"
        },
        {
          "internalType": "uint256",
          "name": "amountRaised",
          "type": "uint256"
        }
      ],
      "stateMutability": "view",
      "type": "function",
      "constant": true
    },
    {
      "stateMutability": "payable",
      "type": "receive",
      "payable": true
    },
    {
      "inputs": [
        {
          "internalType": "string",
          "name": "_title",
          "type": "string"
        },
        {
          "internalType": "string",
          "name": "_description",
          "type": "string"
        },
        {
          "internalType": "uint256",
          "name": "_goal",
          "type": "uint256"
        },
        {
          "internalType": "uint256",
          "name": "_deadline",
          "type": "uint256"
        }
      ],
      "name": "createCampaign",
      "outputs": [],
      "stateMutability": "nonpayable",
      "type": "function"
    },
    {
      "inputs": [
        {
          "internalType": "uint256",
          "name": "_id",
          "type": "uint256"
        }
      ],
      "name": "pledge",
      "outputs": [],
      "stateMutability": "payable",
      "type": "function",
      "payable": true
    },
    {
      "inputs": [
        {
          "internalType": "uint256",
          "name": "_id",
          "type": "uint256"
        }
      ],
      "name": "claimFunds",
      "outputs": [],
      "stateMutability": "nonpayable",
      "type": "function"
    }
  ],
  "bytecode": "0x608060405234801561001057600080fd5b50611420806100206000396000f3fe60806040526004361061004e5760003560e01c8063141961bc1461005a5780631b55e3381461009c5780637274e30d146100c55780637326c9c0146100f0578063a318f2691461010c57610055565b3661005557005b600080fd5b34801561006657600080fd5b50610081600480360381019061007c91906108b5565b610135565b604051610093969594939291906109c2565b60405180910390f35b3480156100a857600080fd5b506100c360048036038101906100be91906108b5565b6102a1565b005b3480156100d157600080fd5b506100da6104e3565b6040516100e79190610a31565b60405180910390f35b61010a600480360381019061010591906108b5565b6104e9565b005b34801561011857600080fd5b50610133600480360381019061012e9190610b81565b610645565b005b600060205280600052604060002060009150905080600001805461015890610c4f565b80601f016020809104026020016040519081016040528092919081815260200182805461018490610c4f565b80156101d15780601f106101a6576101008083540402835291602001916101d1565b820191906000526020600020905b8154815290600101906020018083116101b457829003601f168201915b5050505050908060010180546101e690610c4f565b80601f016020809104026020016040519081016040528092919081815260200182805461021290610c4f565b801561025f5780601f106102345761010080835404028352916020019161025f565b820191906000526020600020905b81548152906001019060200180831161024257829003601f168201915b5050505050908060020154908060030154908060040160009054906101000a900473ffffffffffffffffffffffffffffffffffffffff16908060050154905086565b8060008082815260200190815260200160002060040160009054906101000a900473ffffffffffffffffffffffffffffffffffffffff1673ffffffffffffffffffffffffffffffffffffffff163373ffffffffffffffffffffffffffffffffffffffff1614610345576040517f08c379a000000000000000000000000000000000000000000000000000000000815260040161033c90610cf2565b60405180910390fd5b60008060008481526020019081526020016000209050806003015442116103a1576040517f08c379a000000000000000000000000000000000000000000000000000000000815260040161039890610d5e565b60405180910390fd5b8060020154816005015410156103ec576040517f08c379a00000000000000000000000000000000000000000000000000000000081526004016103e390610dca565b60405180910390fd5b600081600501549050600082600501819055508160040160009054906101000a900473ffffffffffffffffffffffffffffffffffffffff1673ffffffffffffffffffffffffffffffffffffffff166108fc829081150290604051600060405180830381858888f19350505050158015610469573d6000803e3d6000fd5b508160040160009054906101000a900473ffffffffffffffffffffffffffffffffffffffff1673ffffffffffffffffffffffffffffffffffffffff16847fa4eb50103b0591feb0bc913f479d92af5eb7ea33e8c397b49bab52ce6af26cb5836040516104d59190610a31565b60405180910390a350505050565b60015481565b6000341161052c576040517f08c379a000000000000000000000000000000000000000000000000000000000815260040161052390610e36565b60405180910390fd5b6001548110610570576040517f08c379a000000000000000000000000000000000000000000000000000000000815260040161056790610ea2565b60405180910390fd5b6000808281526020019081526020016000206003015442106105c7576040517f08c379a00000000000000000000000000000000000000000000000000000000081526004016105be90610f0e565b60405180910390fd5b3460008083815260200190815260200160002060050160008282546105ec9190610f5d565b925050819055503373ffffffffffffffffffffffffffffffffffffffff16817f2757ac6a40883f4491cc56930ae964df9034e343e660d5179eb01e198336756b3460405161063a9190610a31565b60405180910390a350565b6000845111610689576040517f08c379a000000000000000000000000000000000000000000000000000000000815260040161068090610fdd565b60405180910390fd5b600082116106cc576040517f08c379a00000000000000000000000000000000000000000000000000000000081526004016106c39061106f565b60405180910390fd5b42811161070e576040517f08c379a0000000000000000000000000000000000000000000000000000000008152600401610705906110db565b60405180910390fd5b6040518060c001604052808581526020018481526020018381526020018281526020013373ffffffffffffffffffffffffffffffffffffffff16815260200160008152506000806001548152602001908152602001600020600082015181600001908161077b91906112a7565b50602082015181600101908161079191906112a7565b50604082015181600201556060820151816003015560808201518160040160006101000a81548173ffffffffffffffffffffffffffffffffffffffff021916908373ffffffffffffffffffffffffffffffffffffffff16021790555060a082015181600501559050503373ffffffffffffffffffffffffffffffffffffffff166001547f91b289a829e71d811b8c69e4a24ba2d40d115d8a236e9a724cb3bb2d43cf72238484604051610845929190611379565b60405180910390a360016000815480929190610860906113a2565b919050555050505050565b6000604051905090565b600080fd5b600080fd5b6000819050919050565b6108928161087f565b811461089d57600080fd5b50565b6000813590506108af81610889565b92915050565b6000602082840312156108cb576108ca610875565b5b60006108d9848285016108a0565b91505092915050565b600081519050919050565b600082825260208201905092915050565b60005b8381101561091c578082015181840152602081019050610901565b60008484015250505050565b6000601f19601f8301169050919050565b6000610944826108e2565b61094e81856108ed565b935061095e8185602086016108fe565b61096781610928565b840191505092915050565b61097b8161087f565b82525050565b600073ffffffffffffffffffffffffffffffffffffffff82169050919050565b60006109ac82610981565b9050919050565b6109bc816109a1565b82525050565b600060c08201905081810360008301526109dc8189610939565b905081810360208301526109f08188610939565b90506109ff6040830187610972565b610a0c6060830186610972565b610a1960808301856109b3565b610a2660a0830184610972565b979650505050505050565b6000602082019050610a466000830184610972565b92915050565b600080fd5b600080fd5b7f4e487b7100000000000000000000000000000000000000000000000000000000600052604160045260246000fd5b610a8e82610928565b810181811067ffffffffffffffff82111715610aad57610aac610a56565b5b80604052505050565b6000610ac061086b565b9050610acc8282610a85565b919050565b600067ffffffffffffffff821115610aec57610aeb610a56565b5b610af582610928565b9050602081019050919050565b82818337600083830152505050565b6000610b24610b1f84610ad1565b610ab6565b905082815260208101848484011115610b4057610b3f610a51565b5b610b4b848285610b02565b509392505050565b600082601f830112610b6857610b67610a4c565b5b8135610b78848260208601610b11565b91505092915050565b60008060008060808587031215610b9b57610b9a610875565b5b600085013567ffffffffffffffff811115610bb957610bb861087a565b5b610bc587828801610b53565b945050602085013567ffffffffffffffff811115610be657610be561087a565b5b610bf287828801610b53565b9350506040610c03878288016108a0565b9250506060610c14878288016108a0565b91505092959194509250565b7f4e487b7100000000000000000000000000000000000000000000000000000000600052602260045260246000fd5b60006002820490506001821680610c6757607f821691505b602082108103610c7a57610c79610c20565b5b50919050565b7f48616e79612070656d696c696b2063616d706169676e2079616e67206461706160008201527f74206d656c616b756b616e20696e690000000000000000000000000000000000602082015250565b6000610cdc602f836108ed565b9150610ce782610c80565b604082019050919050565b60006020820190508181036000830152610d0b81610ccf565b9050919050565b7f43616d706169676e2062656c756d20626572616b686972000000000000000000600082015250565b6000610d486017836108ed565b9150610d5382610d12565b602082019050919050565b60006020820190508181036000830152610d7781610d3b565b9050919050565b7f44616e612062656c756d206d656e636170616920746172676574000000000000600082015250565b6000610db4601a836108ed565b9150610dbf82610d7e565b602082019050919050565b60006020820190508181036000830152610de381610da7565b9050919050565b7f446f6e617369206861727573206c656269682064617269203000000000000000600082015250565b6000610e206019836108ed565b9150610e2b82610dea565b602082019050919050565b60006020820190508181036000830152610e4f81610e13565b9050919050565b7f43616d706169676e20746964616b20646974656d756b616e0000000000000000600082015250565b6000610e8c6018836108ed565b9150610e9782610e56565b602082019050919050565b60006020820190508181036000830152610ebb81610e7f565b9050919050565b7f43616d706169676e20737564616820626572616b686972000000000000000000600082015250565b6000610ef86017836108ed565b9150610f0382610ec2565b602082019050919050565b60006020820190508181036000830152610f2781610eeb565b9050919050565b7f4e487b7100000000000000000000000000000000000000000000000000000000600052601160045260246000fd5b6000610f688261087f565b9150610f738361087f565b9250828201905080821115610f8b57610f8a610f2e565b5b92915050565b7f4a7564756c206861727573206469697369000000000000000000000000000000600082015250565b6000610fc76011836108ed565b9150610fd282610f91565b602082019050919050565b60006020820190508181036000830152610ff681610fba565b9050919050565b7f5461726765742064616e61206861727573206c6562696820626573617220646160008201527f7269203000000000000000000000000000000000000000000000000000000000602082015250565b60006110596024836108ed565b915061106482610ffd565b604082019050919050565b600060208201905081810360008301526110888161104c565b9050919050565b7f446561646c696e65206861727573206469206d61736120646570616e00000000600082015250565b60006110c5601c836108ed565b91506110d08261108f565b602082019050919050565b600060208201905081810360008301526110f4816110b8565b9050919050565b60008190508160005260206000209050919050565b60006020601f8301049050919050565b600082821b905092915050565b60006008830261115d7fffffffffffffffffffffffffffffffffffffffffffffffffffffffffffffffff82611120565b6111678683611120565b95508019841693508086168417925050509392505050565b6000819050919050565b60006111a461119f61119a8461087f565b61117f565b61087f565b9050919050565b6000819050919050565b6111be83611189565b6111d26111ca826111ab565b84845461112d565b825550505050565b600090565b6111e76111da565b6111f28184846111b5565b505050565b5b818110156112165761120b6000826111df565b6001810190506111f8565b5050565b601f82111561125b5761122c816110fb565b61123584611110565b81016020851015611244578190505b61125861125085611110565b8301826111f7565b50505b505050565b600082821c905092915050565b600061127e60001984600802611260565b1980831691505092915050565b6000611297838361126d565b9150826002028217905092915050565b6112b0826108e2565b67ffffffffffffffff8111156112c9576112c8610a56565b5b6112d38254610c4f565b6112de82828561121a565b600060209050601f83116001811461131157600084156112ff578287015190505b611309858261128b565b865550611371565b601f19841661131f866110fb565b60005b8281101561134757848901518255600182019150602085019450602081019050611322565b868310156113645784890151611360601f89168261126d565b8355505b6001600288020188555050505b505050505050565b600060408201905061138e6000830185610972565b61139b6020830184610972565b9392505050565b60006113ad8261087f565b91507fffffffffffffffffffffffffffffffffffffffffffffffffffffffffffffffff82036113df576113de610f2e565b5b60018201905091905056fea26469706673582212200ba214bb826b84406cb7d9b327ca051d6fed7b2e9961335d45eae12299ec709764736f6c63430008130033",
  "immutableReferences": {},
  "source": "// SPDX-License-Identifier: MIT\r\npragma solidity ^0.8.0;\r\n\r\ncontract Crowdfunding {\r\n    struct Campaign {\r\n        string title;\r\n        string description;\r\n        uint256 goal;\r\n        uint256 deadline;\r\n        address owner;\r\n        uint256 amountRaised;\r\n    }\r\n\r\n    mapping(uint256 => Campaign) public campaigns;\r\n    uint256 public campaignCount;\r\n\r\n    event CampaignCreated(uint256 indexed id, address indexed owner, uint256 goal, uint256 deadline);\r\n    event Pledged(uint256 indexed campaignId, address indexed backer, uint256 amount);\r\n    event FundsClaimed(uint256 indexed campaignId, address indexed owner, uint256 amount);\r\n\r\n    modifier onlyOwner(uint256 _id) {\r\n        require(msg.sender == campaigns[_id].owner, \"Hanya pemilik campaign yang dapat melakukan ini\");\r\n        _;\r\n    }\r\n\r\n    function createCampaign(\r\n        string memory _title,\r\n        string memory _description,\r\n        uint256 _goal,\r\n        uint256 _deadline\r\n    ) public {\r\n        require(bytes(_title).length > 0, \"Judul harus diisi\");\r\n        require(_goal > 0, \"Target dana harus lebih besar dari 0\");\r\n        require(_deadline > block.timestamp, \"Deadline harus di masa depan\");\r\n\r\n        campaigns[campaignCount] = Campaign({\r\n            title: _title,\r\n            description: _description,\r\n            goal: _goal,\r\n            deadline: _deadline,\r\n            owner: msg.sender,\r\n            amountRaised: 0\r\n        });\r\n\r\n        emit CampaignCreated(campaignCount, msg.sender, _goal, _deadline);\r\n        campaignCount++;\r\n    }\r\n\r\n    function pledge(uint256 _id) public payable {\r\n        require(msg.value > 0, \"Donasi harus lebih dari 0\");\r\n        require(_id < campaignCount, \"Campaign tidak ditemukan\");\r\n        require(block.timestamp < campaigns[_id].deadline, \"Campaign sudah berakhir\");\r\n\r\n        campaigns[_id].amountRaised += msg.value;\r\n\r\n        emit Pledged(_id, msg.sender, msg.value);\r\n    }\r\n\r\n    function claimFunds(uint256 _id) public onlyOwner(_id) {\r\n        Campaign storage campaign = campaigns[_id];\r\n\r\n        require(block.timestamp > campaign.deadline, \"Campaign belum berakhir\");\r\n        require(campaign.amountRaised >= campaign.goal, \"Dana belum mencapai target\");\r\n\r\n        uint256 amount = campaign.amountRaised;\r\n        campaign.amountRaised = 0; // Reset jumlah agar tidak bisa ditarik dua kali\r\n\r\n        payable(campaign.owner).transfer(amount);\r\n\r\n        emit FundsClaimed(_id, campaign.owner, amount);\r\n    }\r\n\r\n    // Fallback untuk menerima dana langsung\r\n    receive() external payable {}\r\n}\r\n",
  "sourcePath": "C:\\blockchain\\crowdfunding-app\\contracts\\Crowdfunding.sol",
  "compiler": {
    "name": "solc",
    "version": "0.8.19+commit.7dd6d404.Emscripten.clang"
  },
  "schemaVersion": "3.4.16",
  "updatedAt": "2025-02-04T23:09:27.688Z",
  "networkType": "ethereum",
  "devdoc": {
    "kind": "dev",
    "methods": {},
    "version": 1
  },
  "userdoc": {
    "kind": "user",
    "methods": {},
    "version": 1
  }
}