{
  "contractName": "Crowdfunding",
  "abi": [
    {
      "anonymous": false,
      "inputs": [
        {
          "indexed": false,
          "internalType": "uint256",
          "name": "id",
          "type": "uint256"
        },
        {
          "indexed": false,
          "internalType": "address",
          "name": "owner",
          "type": "address"
        },
        {
          "indexed": false,
          "internalType": "uint256",
          "name": "goal",
          "type": "uint256"
        },
        {
          "indexed": false,
          "internalType": "uint256",
          "name": "deadline",
          "type": "uint256"
        }
      ],
      "name": "CampaignCreated",
      "type": "event"
    },
    {
      "inputs": [],
      "name": "campaignCount",
      "outputs": [
        {
          "internalType": "uint256",
          "name": "",
          "type": "uint256"
        }
      ],
      "stateMutability": "view",
      "type": "function",
      "constant": true
    },
    {
      "inputs": [
        {
          "internalType": "uint256",
          "name": "",
          "type": "uint256"
        }
      ],
      "name": "campaigns",
      "outputs": [
        {
          "internalType": "string",
          "name": "title",
          "type": "string"
        },
        {
          "internalType": "string",
          "name": "description",
          "type": "string"
        },
        {
          "internalType": "uint256",
          "name": "goal",
          "type": "uint256"
        },
        {
          "internalType": "uint256",
          "name": "deadline",
          "type": "uint256"
        },
        {
          "internalType": "address",
          "name": "owner",
          "type": "address"
        },
        {
          "internalType": "uint256",
          "name": "amountRaised",
          "type": "uint256"
        }
      ],
      "stateMutability": "view",
      "type": "function",
      "constant": true
    },
    {
      "inputs": [
        {
          "internalType": "string",
          "name": "_title",
          "type": "string"
        },
        {
          "internalType": "string",
          "name": "_description",
          "type": "string"
        },
        {
          "internalType": "uint256",
          "name": "_goal",
          "type": "uint256"
        },
        {
          "internalType": "uint256",
          "name": "_deadline",
          "type": "uint256"
        }
      ],
      "name": "createCampaign",
      "outputs": [],
      "stateMutability": "nonpayable",
      "type": "function"
    },
    {
      "inputs": [
        {
          "internalType": "uint256",
          "name": "_id",
          "type": "uint256"
        }
      ],
      "name": "pledge",
      "outputs": [],
      "stateMutability": "payable",
      "type": "function",
      "payable": true
    },
    {
      "inputs": [
        {
          "internalType": "uint256",
          "name": "_id",
          "type": "uint256"
        }
      ],
      "name": "claimFunds",
      "outputs": [],
      "stateMutability": "nonpayable",
      "type": "function"
    }
  ],
  "bytecode": "0x608060405234801561001057600080fd5b50611288806100206000396000f3fe60806040526004361061004a5760003560e01c8063141961bc1461004f5780631b55e338146100915780637274e30d146100ba5780637326c9c0146100e5578063a318f26914610101575b600080fd5b34801561005b57600080fd5b506100766004803603810190610071919061076d565b61012a565b6040516100889695949392919061087a565b60405180910390f35b34801561009d57600080fd5b506100b860048036038101906100b3919061076d565b610296565b005b3480156100c657600080fd5b506100cf610442565b6040516100dc91906108e9565b60405180910390f35b6100ff60048036038101906100fa919061076d565b610448565b005b34801561010d57600080fd5b5061012860048036038101906101239190610a39565b610511565b005b600060205280600052604060002060009150905080600001805461014d90610b07565b80601f016020809104026020016040519081016040528092919081815260200182805461017990610b07565b80156101c65780601f1061019b576101008083540402835291602001916101c6565b820191906000526020600020905b8154815290600101906020018083116101a957829003601f168201915b5050505050908060010180546101db90610b07565b80601f016020809104026020016040519081016040528092919081815260200182805461020790610b07565b80156102545780601f1061022957610100808354040283529160200191610254565b820191906000526020600020905b81548152906001019060200180831161023757829003601f168201915b5050505050908060020154908060030154908060040160009054906101000a900473ffffffffffffffffffffffffffffffffffffffff16908060050154905086565b600080600083815260200190815260200160002090508060040160009054906101000a900473ffffffffffffffffffffffffffffffffffffffff1673ffffffffffffffffffffffffffffffffffffffff163373ffffffffffffffffffffffffffffffffffffffff161461033e576040517f08c379a000000000000000000000000000000000000000000000000000000000815260040161033590610baa565b60405180910390fd5b80600301544211610384576040517f08c379a000000000000000000000000000000000000000000000000000000000815260040161037b90610c16565b60405180910390fd5b8060020154816005015410156103cf576040517f08c379a00000000000000000000000000000000000000000000000000000000081526004016103c690610c82565b60405180910390fd5b8060040160009054906101000a900473ffffffffffffffffffffffffffffffffffffffff1673ffffffffffffffffffffffffffffffffffffffff166108fc82600501549081150290604051600060405180830381858888f1935050505015801561043d573d6000803e3d6000fd5b505050565b60015481565b6000341161048b576040517f08c379a000000000000000000000000000000000000000000000000000000000815260040161048290610cee565b60405180910390fd5b6000808281526020019081526020016000206003015442106104e2576040517f08c379a00000000000000000000000000000000000000000000000000000000081526004016104d990610d5a565b60405180910390fd5b3460008083815260200190815260200160002060050160008282546105079190610da9565b9250508190555050565b6000845111610555576040517f08c379a000000000000000000000000000000000000000000000000000000000815260040161054c90610e29565b60405180910390fd5b60008211610598576040517f08c379a000000000000000000000000000000000000000000000000000000000815260040161058f90610ebb565b60405180910390fd5b4281116105da576040517f08c379a00000000000000000000000000000000000000000000000000000000081526004016105d190610f27565b60405180910390fd5b6040518060c001604052808581526020018481526020018381526020018281526020013373ffffffffffffffffffffffffffffffffffffffff16815260200160008152506000806001548152602001908152602001600020600082015181600001908161064791906110f3565b50602082015181600101908161065d91906110f3565b50604082015181600201556060820151816003015560808201518160040160006101000a81548173ffffffffffffffffffffffffffffffffffffffff021916908373ffffffffffffffffffffffffffffffffffffffff16021790555060a082015181600501559050507f91b289a829e71d811b8c69e4a24ba2d40d115d8a236e9a724cb3bb2d43cf72236001543384846040516106fd94939291906111c5565b60405180910390a1600160008154809291906107189061120a565b919050555050505050565b6000604051905090565b600080fd5b600080fd5b6000819050919050565b61074a81610737565b811461075557600080fd5b50565b60008135905061076781610741565b92915050565b6000602082840312156107835761078261072d565b5b600061079184828501610758565b91505092915050565b600081519050919050565b600082825260208201905092915050565b60005b838110156107d45780820151818401526020810190506107b9565b60008484015250505050565b6000601f19601f8301169050919050565b60006107fc8261079a565b61080681856107a5565b93506108168185602086016107b6565b61081f816107e0565b840191505092915050565b61083381610737565b82525050565b600073ffffffffffffffffffffffffffffffffffffffff82169050919050565b600061086482610839565b9050919050565b61087481610859565b82525050565b600060c082019050818103600083015261089481896107f1565b905081810360208301526108a881886107f1565b90506108b7604083018761082a565b6108c4606083018661082a565b6108d1608083018561086b565b6108de60a083018461082a565b979650505050505050565b60006020820190506108fe600083018461082a565b92915050565b600080fd5b600080fd5b7f4e487b7100000000000000000000000000000000000000000000000000000000600052604160045260246000fd5b610946826107e0565b810181811067ffffffffffffffff821117156109655761096461090e565b5b80604052505050565b6000610978610723565b9050610984828261093d565b919050565b600067ffffffffffffffff8211156109a4576109a361090e565b5b6109ad826107e0565b9050602081019050919050565b82818337600083830152505050565b60006109dc6109d784610989565b61096e565b9050828152602081018484840111156109f8576109f7610909565b5b610a038482856109ba565b509392505050565b600082601f830112610a2057610a1f610904565b5b8135610a308482602086016109c9565b91505092915050565b60008060008060808587031215610a5357610a5261072d565b5b600085013567ffffffffffffffff811115610a7157610a70610732565b5b610a7d87828801610a0b565b945050602085013567ffffffffffffffff811115610a9e57610a9d610732565b5b610aaa87828801610a0b565b9350506040610abb87828801610758565b9250506060610acc87828801610758565b91505092959194509250565b7f4e487b7100000000000000000000000000000000000000000000000000000000600052602260045260246000fd5b60006002820490506001821680610b1f57607f821691505b602082108103610b3257610b31610ad8565b5b50919050565b7f48616e79612070656d696c696b2063616d706169676e2079616e67206461706160008201527f74206d656e6172696b2064616e61000000000000000000000000000000000000602082015250565b6000610b94602e836107a5565b9150610b9f82610b38565b604082019050919050565b60006020820190508181036000830152610bc381610b87565b9050919050565b7f43616d706169676e2062656c756d20626572616b686972000000000000000000600082015250565b6000610c006017836107a5565b9150610c0b82610bca565b602082019050919050565b60006020820190508181036000830152610c2f81610bf3565b9050919050565b7f44616e612062656c756d206d656e636170616920746172676574000000000000600082015250565b6000610c6c601a836107a5565b9150610c7782610c36565b602082019050919050565b60006020820190508181036000830152610c9b81610c5f565b9050919050565b7f446f6e617369206861727573206c656269682064617269203000000000000000600082015250565b6000610cd86019836107a5565b9150610ce382610ca2565b602082019050919050565b60006020820190508181036000830152610d0781610ccb565b9050919050565b7f43616d706169676e20737564616820626572616b686972000000000000000000600082015250565b6000610d446017836107a5565b9150610d4f82610d0e565b602082019050919050565b60006020820190508181036000830152610d7381610d37565b9050919050565b7f4e487b7100000000000000000000000000000000000000000000000000000000600052601160045260246000fd5b6000610db482610737565b9150610dbf83610737565b9250828201905080821115610dd757610dd6610d7a565b5b92915050565b7f4a7564756c206861727573206469697369000000000000000000000000000000600082015250565b6000610e136011836107a5565b9150610e1e82610ddd565b602082019050919050565b60006020820190508181036000830152610e4281610e06565b9050919050565b7f5461726765742064616e61206861727573206c6562696820626573617220646160008201527f7269203000000000000000000000000000000000000000000000000000000000602082015250565b6000610ea56024836107a5565b9150610eb082610e49565b604082019050919050565b60006020820190508181036000830152610ed481610e98565b9050919050565b7f446561646c696e65206861727573206469206d61736120646570616e00000000600082015250565b6000610f11601c836107a5565b9150610f1c82610edb565b602082019050919050565b60006020820190508181036000830152610f4081610f04565b9050919050565b60008190508160005260206000209050919050565b60006020601f8301049050919050565b600082821b905092915050565b600060088302610fa97fffffffffffffffffffffffffffffffffffffffffffffffffffffffffffffffff82610f6c565b610fb38683610f6c565b95508019841693508086168417925050509392505050565b6000819050919050565b6000610ff0610feb610fe684610737565b610fcb565b610737565b9050919050565b6000819050919050565b61100a83610fd5565b61101e61101682610ff7565b848454610f79565b825550505050565b600090565b611033611026565b61103e818484611001565b505050565b5b818110156110625761105760008261102b565b600181019050611044565b5050565b601f8211156110a75761107881610f47565b61108184610f5c565b81016020851015611090578190505b6110a461109c85610f5c565b830182611043565b50505b505050565b600082821c905092915050565b60006110ca600019846008026110ac565b1980831691505092915050565b60006110e383836110b9565b9150826002028217905092915050565b6110fc8261079a565b67ffffffffffffffff8111156111155761111461090e565b5b61111f8254610b07565b61112a828285611066565b600060209050601f83116001811461115d576000841561114b578287015190505b61115585826110d7565b8655506111bd565b601f19841661116b86610f47565b60005b828110156111935784890151825560018201915060208501945060208101905061116e565b868310156111b057848901516111ac601f8916826110b9565b8355505b6001600288020188555050505b505050505050565b60006080820190506111da600083018761082a565b6111e7602083018661086b565b6111f4604083018561082a565b611201606083018461082a565b95945050505050565b600061121582610737565b91507fffffffffffffffffffffffffffffffffffffffffffffffffffffffffffffffff820361124757611246610d7a565b5b60018201905091905056fea2646970667358221220877ccf4065f1dcb9a057f737fce6c8140ae601f86b2174a6ebf6846b3911997664736f6c63430008130033",
  "immutableReferences": {},
  "source": "// SPDX-License-Identifier: MIT\r\npragma solidity ^0.8.0;\r\n\r\ncontract Crowdfunding {\r\n    struct Campaign {\r\n        string title;\r\n        string description;\r\n        uint256 goal;\r\n        uint256 deadline;\r\n        address owner;\r\n        uint256 amountRaised;\r\n    }\r\n\r\n    mapping(uint256 => Campaign) public campaigns;\r\n    uint256 public campaignCount;\r\n\r\n    event CampaignCreated(uint256 id, address owner, uint256 goal, uint256 deadline);\r\n\r\n    function createCampaign(\r\n        string memory _title,\r\n        string memory _description,\r\n        uint256 _goal,\r\n        uint256 _deadline\r\n    ) public {\r\n        require(bytes(_title).length > 0, \"Judul harus diisi\");\r\n        require(_goal > 0, \"Target dana harus lebih besar dari 0\");\r\n        require(_deadline > block.timestamp, \"Deadline harus di masa depan\");\r\n\r\n        campaigns[campaignCount] = Campaign({\r\n            title: _title,\r\n            description: _description,\r\n            goal: _goal,\r\n            deadline: _deadline,\r\n            owner: msg.sender,\r\n            amountRaised: 0\r\n        });\r\n\r\n        emit CampaignCreated(campaignCount, msg.sender, _goal, _deadline);\r\n        campaignCount++;\r\n    }\r\n\r\n    function pledge(uint256 _id) public payable {\r\n        require(msg.value > 0, \"Donasi harus lebih dari 0\");\r\n        require(block.timestamp < campaigns[_id].deadline, \"Campaign sudah berakhir\");\r\n\r\n        campaigns[_id].amountRaised += msg.value;\r\n    }\r\n\r\n    function claimFunds(uint256 _id) public {\r\n        Campaign storage campaign = campaigns[_id];\r\n        require(msg.sender == campaign.owner, \"Hanya pemilik campaign yang dapat menarik dana\");\r\n        require(block.timestamp > campaign.deadline, \"Campaign belum berakhir\");\r\n        require(campaign.amountRaised >= campaign.goal, \"Dana belum mencapai target\");\r\n\r\n        payable(campaign.owner).transfer(campaign.amountRaised);\r\n    }\r\n}\r\n",
  "sourcePath": "C:\\blockchain\\crowdfunding-app\\contracts\\Crowdfunding.sol",
  "compiler": {
    "name": "solc",
    "version": "0.8.19+commit.7dd6d404.Emscripten.clang"
  },
  "schemaVersion": "3.4.16",
  "updatedAt": "2025-01-31T08:03:48.361Z",
  "networkType": "ethereum",
  "devdoc": {
    "kind": "dev",
    "methods": {},
    "version": 1
  },
  "userdoc": {
    "kind": "user",
    "methods": {},
    "version": 1
  }
}